{
  "_format": "hh-sol-artifact-1",
  "contractName": "ClubIDCheck",
  "sourceName": "contracts/ClubIDCheck.sol",
  "abi": [
    {
      "inputs": [],
      "name": "TENKTF_CONTRACT_ADDRESS",
      "outputs": [
        {
          "internalType": "address",
          "name": "",
          "type": "address"
        }
      ],
      "stateMutability": "view",
      "type": "function"
    },
    {
      "inputs": [],
      "name": "WARM_CONTRACT_ADDRESS",
      "outputs": [
        {
          "internalType": "address",
          "name": "",
          "type": "address"
        }
      ],
      "stateMutability": "view",
      "type": "function"
    },
    {
      "inputs": [
        {
          "internalType": "address",
          "name": "contractAddress",
          "type": "address"
        }
      ],
      "name": "verify",
      "outputs": [
        {
          "internalType": "uint256",
          "name": "",
          "type": "uint256"
        }
      ],
      "stateMutability": "view",
      "type": "function"
    }
  ],
  "bytecode": "0x608060405234801561001057600080fd5b50610249806100206000396000f3fe608060405234801561001057600080fd5b50600436106100415760003560e01c806363a9c3d714610046578063c680e50a1461009e578063e54e937a146100d2575b600080fd5b6100886004803603602081101561005c57600080fd5b81019080803573ffffffffffffffffffffffffffffffffffffffff169060200190929190505050610106565b6040518082815260200191505060405180910390f35b6100a66101e3565b604051808273ffffffffffffffffffffffffffffffffffffffff16815260200191505060405180910390f35b6100da6101fb565b604051808273ffffffffffffffffffffffffffffffffffffffff16815260200191505060405180910390f35b60008173ffffffffffffffffffffffffffffffffffffffff1663f7888aec73bca63e82869c9778b842ccbd8e88bbd766b48578336040518363ffffffff1660e01b8152600401808373ffffffffffffffffffffffffffffffffffffffff1681526020018273ffffffffffffffffffffffffffffffffffffffff1681526020019250505060206040518083038186803b1580156101a157600080fd5b505afa1580156101b5573d6000803e3d6000fd5b505050506040513d60208110156101cb57600080fd5b81019080805190602001909291905050509050919050565b73b2790b357c3a1258efdc68a4fd043ffc137ac26b81565b73bca63e82869c9778b842ccbd8e88bbd766b485788156fea2646970667358221220fa21f6619c6dd98082e49ea2830177ac8bec93f1ee7aa3ae656976be0030c4fc64736f6c63430007030033",
  "linkReferences": {},
  "deployedLinkReferences": {}
}